{
  "contractName": "Voting",
  "abi": [
    {
      "constant": false,
      "inputs": [
        {
          "name": "candidateNames",
          "type": "bytes32[]"
        }
      ],
      "name": "Voing",
      "outputs": [],
      "payable": false,
      "stateMutability": "nonpayable",
      "type": "function"
    },
    {
      "constant": true,
      "inputs": [
        {
          "name": "candidate",
          "type": "bytes32"
        }
      ],
      "name": "totalVotesFor",
      "outputs": [
        {
          "name": "",
          "type": "uint8"
        }
      ],
      "payable": false,
      "stateMutability": "view",
      "type": "function"
    },
    {
      "constant": true,
      "inputs": [
        {
          "name": "candidate",
          "type": "bytes32"
        }
      ],
      "name": "validCandidate",
      "outputs": [
        {
          "name": "",
          "type": "bool"
        }
      ],
      "payable": false,
      "stateMutability": "view",
      "type": "function"
    },
    {
      "constant": true,
      "inputs": [
        {
          "name": "",
          "type": "bytes32"
        }
      ],
      "name": "votesReceived",
      "outputs": [
        {
          "name": "",
          "type": "uint8"
        }
      ],
      "payable": false,
      "stateMutability": "view",
      "type": "function"
    },
    {
      "constant": true,
      "inputs": [
        {
          "name": "",
          "type": "uint256"
        }
      ],
      "name": "candidateList",
      "outputs": [
        {
          "name": "",
          "type": "bytes32"
        }
      ],
      "payable": false,
      "stateMutability": "view",
      "type": "function"
    },
    {
      "constant": false,
      "inputs": [
        {
          "name": "candidate",
          "type": "bytes32"
        }
      ],
      "name": "voteForCandidate",
      "outputs": [],
      "payable": false,
      "stateMutability": "nonpayable",
      "type": "function"
    }
  ],
  "bytecode": "0x6060604052341561000f57600080fd5b6104028061001e6000396000f300606060405260043610610078576000357c0100000000000000000000000000000000000000000000000000000000900463ffffffff1680631abab8a91461007d5780632f265cf7146100d7578063392e6678146101185780637021939f14610157578063b13c744b14610198578063cc9ab267146101d7575b600080fd5b341561008857600080fd5b6100d56004808035906020019082018035906020019080806020026020016040519081016040528093929190818152602001838360200280828437820191505050505050919050506101fe565b005b34156100e257600080fd5b6100fc600480803560001916906020019091905050610218565b604051808260ff1660ff16815260200191505060405180910390f35b341561012357600080fd5b61013d60048080356000191690602001909190505061025d565b604051808215151515815260200191505060405180910390f35b341561016257600080fd5b61017c6004808035600019169060200190919050506102bd565b604051808260ff1660ff16815260200191505060405180910390f35b34156101a357600080fd5b6101b960048080359060200190919050506102dd565b60405180826000191660001916815260200191505060405180910390f35b34156101e257600080fd5b6101fc600480803560001916906020019091905050610301565b005b806001908051906020019061021492919061035e565b5050565b60006102238261025d565b151561022e57600080fd5b600080836000191660001916815260200190815260200160002060009054906101000a900460ff169050919050565b600080600090505b6001805490508110156102b257826000191660018281548110151561028657fe5b9060005260206000209001546000191614156102a557600191506102b7565b8080600101915050610265565b600091505b50919050565b60006020528060005260406000206000915054906101000a900460ff1681565b6001818154811015156102ec57fe5b90600052602060002090016000915090505481565b61030a8161025d565b151561031557600080fd5b6001600080836000191660001916815260200190815260200160002060008282829054906101000a900460ff160192506101000a81548160ff021916908360ff16021790555050565b8280548282559060005260206000209081019282156103a0579160200282015b8281111561039f57825182906000191690559160200191906001019061037e565b5b5090506103ad91906103b1565b5090565b6103d391905b808211156103cf5760008160009055506001016103b7565b5090565b905600a165627a7a72305820e84d02ce990bea5c60df2da6b97b469936f4e24edda37850e369f1b1f7bab6460029",
  "source": "//.sol file to hold our voting contract \n\n// Specify what version of the compiler we will use\npragma solidity ^0.4.17;\n\n\t\n\t//Define our contract\n\tcontract Voting {\n\t\n\t/*Define a mapping field (similar to an associative array or hash)\n\t  our key is the candidate name stored as the bytes32 type and \n\t  the value is an unsigned int (this will store the vote count)*/\n\tmapping (bytes32 => uint8) public votesReceived;\n\n\t//Define an arry of the bytes32 type to store our list of candidates\n\tbytes32[] public candidateList;\n\n\t/*Define the constructor, this is called when we deploy the contract\n\t  to the blockchain. We are passing our constructor an\n\t  array of the candidate names */\n\tfunction Voing(bytes32[] candidateNames) public {\n\t\tcandidateList = candidateNames;\n\t}\n\n\t//Define a function to return the total votes a candidate has received so far\n\tfunction totalVotesFor(bytes32 candidate) view public returns (uint8) {\n\t\t\n\t\t//check to see if our candidate is valid\n\t\trequire(validCandidate(candidate));\n\t\treturn votesReceived[candidate];\n\t}\n\n\t//Define a function to vote for a candidate \n\tfunction voteForCandidate(bytes32 candidate) public {\n\n\t\trequire(validCandidate(candidate));\n\t\tvotesReceived[candidate] += 1;\n\t}\n\t\n\t//Define a function to check if the candidate is valid\n\tfunction validCandidate(bytes32 candidate) view public returns (bool) {\n\n\t\tfor(uint i = 0; i < candidateList.length; i++)\n\t\t\t{\n\t\t\t\tif (candidateList[i] == candidate) \n\t\t\t\t{\n\t\t\t\t\treturn true;\n\t\t\t\t}\n\t\t\t}\n\t\treturn false;\n\t}\t\t\t\n}\n",
  "sourcePath": "/home/jim/DevStuff/eth101/ethFun/contracts/Voting.sol",
  "compiler": {
    "name": "solc",
    "version": "0.4.18+commit.9cf6e910.Emscripten.clang"
  },
  "schemaVersion": "1.0.1",
  "updatedAt": "2017-11-24T06:31:24.426Z"
}